:100000000C94C0010C94DD010C94DD010C94B01B28
:100010000C94DD010C94DD010C94DD010C94DD01E8
:100020000C94DD010C94DD010C94D5200C94A821D6
:100030000C94331A0C94DD010C94DD010C94DD0159
:100040000C94DD010C94DD010C94DD010C94DD01B8
:100050000C94DD010C94D01A0C94DD010C94DD019C
:100060000C94DD010C94DD010C94DD010C94DD0198
:100070000C94DD010C94DD010C94DD010C94DD0188
:100080000C94DD010C94DD010C94DD010C94DD0178
:100090000C94DD010C94DD010C94DD010C94DD0168
:1000A0000C94DD010C94DD010C94DD0129001E008F
:1000B0001F002000210022002B0014001A0008005D
:1000C00015001700E10004001600070009000A00EF
:1000D000E0001D001B0006001900050000003900AB
:1000E000E7002152E2002C002D0027002600250009
:1000F000240023003000130012000C0018001C0024
:10010000340033000F000E000D000B0031003800EA
:10011000370036001000110000004C002800225269
:10012000E6002A0029003A003B003C003D003E006A
:100130002B0000005F0060006100AB00E1000000E8
:100140005C005D005E00AE00E000000059005A0057
:100150005B00AC0000003900E7000100E2002C0069
:10016000440043004200410040003F0045002F0092
:10017000BD004A004B00A900A80000004F0052003B
:100180005100500046000000BE004D004E00AA0085
:1001900000004C0028000100E6002A00007C00005E
:1001A0000000000000000000000000001F146400B8
:1001B0002D00000064141E021F02200221142202DE
:1001C0000000000000006402380000000000390058
:1001D000E3000100E2002C0000000000000000002D
:1001E0000000000000000000241425142502000077
:1001F00032022E02270230142402230200000000E3
:10020000271426142602000000004C0028000100DC
:10021000E6002A000E037300630079006C006C0096
:10022000610000000E03640079006E003100780068
:10023000780000000403090409023B00020100A049
:10024000FA09040000010301010009211101000164
:10025000224400070581030800010904010001038D
:1002600000000009211101000122B60007058203E8
:100270002000011201000200000008EDFE00000055
:10028000010102000105010902A10185020901A184
:100290000005091901290815002501950875018136
:1002A000020501093009311581257F950275088104
:1002B0000609381581257F950175088106050C0A08
:1002C00038021581257F950175088106C0C005019A
:1002D0000980A101850319012AB700150126B7007D
:1002E000950175108100C0050C0901A10185041953
:1002F000012AA002150126A002950175108100C0F7
:1003000005010906A1018506050719E029E7150081
:1003100025019508750181020507190029EF1500CF
:10032000250195F07501810205081901290595053A
:1003300075019102950175039101C005010906A19E
:1003400001050719E029E7150025019508750181C8
:10035000029501750881010507190029FF1500267E
:10036000FF0095067508810005081901290515008B
:100370002501950575019102950175039101C00054
:1003800011241FBECFEFDAE0DEBFCDBF11E0A0E049
:10039000B1E0E4E0F9E402C005900D92AA3AB10799
:1003A000D9F722E0AAEAB1E001C01D92A63FB20748
:1003B000E1F70E94BF130C942E240C9400008330AC
:1003C000B8F46A30A8F4463098F4E42FF0E096E0F0
:1003D000699FE00DF11D11249CE3899FE00DF11D43
:1003E0001124EE0FFF1FE455FF4F8591959108955D
:1003F00081E090E008950E94DF01089581E0089572
:100400000E94FE01089581E0089581E008950E9410
:100410000502089508950E940A020895A6E0B0E03A
:10042000E4E1F2E00C948A2349835A839E8330915D
:10043000B10189819A8131111AC03E81311599F03B
:10044000211589F00E94B407182F682F89819A819D
:100450000E94900769817A81812F0E94AF0E2696B3
:10046000E3E00C94A6230E94A207182FF3CF0E946A
:10047000B40769817A81F1CFFC01262F4081518137
:1004800062817381848195810E940E020895CF93C9
:10049000DF93D82FC92F61E00E943C026D2F7C2F83
:1004A0000E940002DF91CF910895CF93DF93D82F60
:1004B000C92F60E00E943C026D2F7C2F0E940B022E
:1004C000DF91CF91089581E008950E94630208951D
:1004D000CF93C82F0E945C068C2F0E9465022FEFDD
:1004E00084E39CE0215080409040E1F700C0000090
:1004F000CF91089581E00E9468020E94F41A089545
:1005000080E00E9468020E94051B08950F931F93CC
:10051000CF93DF938C0161E00E943C02EC01B801B3
:100520000E9407028115B1F1B801CE010E94FD17AA
:10053000811581F1B801CE010E943F14811551F15E
:10054000B801CE010E941414811521F1F8018581B2
:10055000811581F0CA35FCE7DF0739F178F4C13045
:10056000ECE7DE07F9F0C330FCE7DF07C9F0C1159F
:10057000DC4771F0C8010E9403020DC0CB35ECE7E7
:10058000DE07B1F0CC35DC47A9F70E94E30BF2CFD0
:100590000E947A0280E0DF91CF911F910F91089520
:1005A0000E94F40B0E948002F5CF0E94EC0BE2CF78
:1005B0000E94F00BDFCF0E94101A0E9402030895E0
:1005C0000E9406030E94151A0895089581E0089577
:1005D0000895CF93DF93D82F0E94E602C82F81158C
:1005E00019F08D2F0E94E8028C2FDF91CF91089592
:1005F0000895CF93C82F0E94E5028C2F0E94E90234
:10060000CF91089580E00E94F90208950E94441855
:100610000E94F9020895CF930E944418C82F809138
:10062000AC018C1779F0C093AC010E949F1A6093C3
:10063000AD017093AE018093AF019093B0018C2F08
:100640000E94F902CF910895ADE0B0E0EAE2F3E054
:100650000C948B23488759876A877B878C879D8773
:1006600091110E94EF0A1F8286E0FE013896DE019A
:10067000119601900D928A95E1F78D8181110DC03F
:1006800029813A814B815C816D817E818F810E94BD
:10069000390A2D96E2E00C94A723CE0101960E9420
:1006A00047028111EDCFF5CFFC018481813021F427
:1006B000808191810E94E6070895611529F00E94CA
:1006C000A5150E94791608950E940116FACFCF93BE
:1006D000C82F811599F08CEF8C0F813A88F48C2FFC
:1006E0000E94EF18811529F08C2F0E9494190E9406
:1006F000850B8C2F0E947D190E94850BCF91089548
:1007000080E28C0F883048F4C77081E001C0880F08
:10071000CA95EAF70E94D00AEFCF8BE58C0F8330A1
:1007200038F42C2F2452330BC9010E948118E6CFD4
:10073000E8E5EC0FEB3150F4F0E0EE0FFF1FE05D69
:10074000FE4F808191810E94A718D8CF83E38C0F40
:100750008331A0F661E08C2F0E945D03CFCF81151D
:1007600081F19CEF980F913A28F40E9494190E940D
:10077000850B089590E2980F983050F4877091E0BF
:1007800001C0990F8A95EAF7892F0E94D60AEFCF08
:100790009BE5980F933028F480E090E00E94811848
:1007A000089598E5980F9B3128F480E090E00E942E
:1007B000A718089593E3980F933118F460E00E940E
:1007C0005D0308950F931F93CF93C82F8B010E9451
:1007D00067030115110539F48C2F0E94AF03CF91E7
:1007E0001F910F9108958FE99FE00197F1F700C0E5
:1007F000000001501109EDCF60E570E0893311F080
:1008000060E070E00E94E2030895811521F00E94EB
:10081000D00A0E94850B0895811521F00E94D60A06
:100820000E94850B0895A0E0B0E0E9E1F4E00C94AB
:1008300085236C01D62FC72FFC01158106810295F7
:100840000F700E94C50AE82E8115F9F0E12E1115EE
:10085000E1F08C2F807F803461F080E28D0F883052
:10086000F0F08C2F807E803221F4D230C0F0011560
:10087000B1F08091CA0282FF12C082E00E94B60BE2
:100880000E94C50A91E0E82EE926EC2FE295EF7070
:10089000C03CB0F5F0E0E05DFB4D0C947523E12C1D
:1008A000F4CF0C2F0F70C03110F00295007F11159E
:1008B00099F0011559F080E28D0F883010F0D111B8
:1008C00007C0802F0E94D00A0E94850B8D2F51C037
:1008D000802F0E94E10AF8CF8D2F0E94AF030115EF
:1008E00079F080E28D0F883010F0D11104C0802F94
:1008F0000E94D60A03C0802F0E94E70A0E94850B3F
:10090000E11489F00E94C10A80FD0DC0F601158234
:100910000E94BB0A0E94EE06C6010E9423060E94A6
:10092000BB0A0E94FE06CDB7DEB7E8E00C94A12317
:10093000FC2FFF70FF2EC07FC03219F0F29480EFC1
:10094000F822D11541F0D130D1F1111509F444C08C
:100950000115F1F0BBCF8091CA0282FD15C01115BF
:1009600059F0F11429F08F2D0E94D00A0E94850BB6
:1009700080E00E946703C4CF80E00E94AF03F114BF
:1009800009F4BECF8F2DB4CF111569F0011104C049
:100990008F2D0E940504B4CF013009F0B1CF8F2D07
:1009A0000E94070BADCF0111ABCF8F2D0E940C041D
:1009B0008F2D0E94130B8F2D0E94F60AA1CF1115C7
:1009C00021F0063008F09CCFE3CF053008F098CF37
:1009D0008F2D0E940C0494CF0115D1F3D93349F423
:1009E0002FEF87EE93E0215080409040E1F700C068
:1009F00000008D2F0E94AF0383CF8C2F86958695A4
:100A00008370811569F0813009F07ACF8D2F9C2F8A
:100A10009370111102C080E090E00E94A71870CF7F
:100A20008D2F9C2F9370111102C080E090E00E94E6
:100A3000811866CF612F8D2F0E945D0361CF8C2FAF
:100A40008370811139C0111129C04D2F42954695EF
:100A50004770440F440F2D2F2F7030E0042E02C03A
:100A6000220F331F0A94E2F780E090E0D4FF09C020
:100A70008FE090E002C0880F991F4A95E2F78095B9
:100A80009095C695C695C370822B932BC23071F09A
:100A9000C33079F0C13039F00E94BE060E9444187C
:100AA0000E94F9022DCF0E94B506F8CF0E94C7061A
:100AB000F5CF0E94B206F2CF111561F1C0FFEECF63
:100AC0004D2F429546954770440F440F2D2F2F70A0
:100AD00030E0042E02C0220F331F0A94E2F780E0B8
:100AE00090E0D4FF09C08FE090E002C0880F991F0A
:100AF0004A95E2F780959095C695C695C370822B6E
:100B0000932BC23069F0C33071F0C13031F00E94D4
:100B10002907C4CF823010F2D3CF0E942007BECF66
:100B20000E943207BBCF0E94D606B8CFCF701115F6
:100B300039F08C2F0E94EE068D2F0E940504AECF57
:100B40008D2F0E940C048C2F0E94FE06A7CFD23F4F
:100B500041F170F4D03FC9F0D13F91F0111509F483
:100B600046C0011509F440C08D2F0E94670396CF3F
:100B7000D33FF1F0D43F91F78091CA0282FD22C0A9
:100B80008C2F8F71111501F310C0111541F0053034
:100B900008F084CF8C2F8F710E9410077FCF063012
:100BA000F7CF8C2F8F711111CFCF0E94EE0676CF29
:100BB000111529F08C2F8F710E94E2066FCF0E94D1
:100BC000DD066CCF111531F063E08C2F8F710E9420
:100BD000970B64CF81E00E94B60B023008F45ECF21
:100BE00082E00E94B60B5ACF8C2F8F71DECF011599
:100BF00079F0D93349F4EFEFF7EE23E0E150F0401C
:100C00002040E1F700C000008D2F0E94AF0346CFC7
:100C10008C2F8F7199CF0F931F93CF93DF93EC019C
:100C2000688179818D810E94F3078C010E943B07C6
:100C30000E94B106B801CE010E941304DF91CF914A
:100C40001F910F910895CF93DF93EC018C81811553
:100C500099F0CE010E948602811111C00E94C50A3E
:100C6000811551F08D81811539F08091CA0282FF82
:100C700003C082E00E94B60BDF91CF910895CE01B0
:100C80000E940B06CE010E945502F6CF80E090E054
:100C90000E94811880E090E00E94A7180E94EF0A4D
:100CA0000E94850B0E9496160E94791608950E9454
:100CB000AB190E94460608950E94DE0A0E9457065C
:100CC0000895282F92959F70963099F060F4925F66
:100CD0009F70923030F4203FB1F038F481E0283E2C
:100CE00038F080E008959A5FF3CF81E0243FC9F7A0
:100CF000089591E0813F09F090E081E0283E08F0FE
:100D000080E0892B089581E00895FC01848181159C
:100D100039F0808191810E94E6070E946106089562
:100D200080E00895A6E0B0E0E8E9F6E00C948B23BB
:100D30002696E2E00C94A723A7E0B0E0E2EAF6E012
:100D40000C948B232796E2E00C94A72308950E942D
:100D5000A60608950E94A7069093D5018093D4011A
:100D6000089508950E94AA0608952091D401309113
:100D7000D501822B932B0E94AA0608952091D401BD
:100D80003091D501822393230E94AA0608952091D1
:100D9000D4013091D501822793270E94AA06089595
:100DA0000E94A60608950E94D00608950E94D306C8
:100DB0009093D3018093D201089580E090E00E9447
:100DC000D606089521E030E0A90102C0440F551F66
:100DD0008A95E2F7CA010E94D606089521E030E024
:100DE00002C0220F331F8A95E2F78091D2019091C1
:100DF000D301822B932B0E94D606089521E030E088
:100E000002C0220F331F8A95E2F72095309580911A
:100E1000D2019091D301822393230E94D606089594
:100E200021E030E002C0220F331F8A95E2F7809163
:100E3000D2019091D301822793270E94D60608956C
:100E40002091D2013091D301822B932B0E94D606A0
:100E500008952091D2013091D301822393230E94DF
:100E6000D60608952091D2013091D301822793278D
:100E70000E94D606089508959B01677091E001C015
:100E8000990F6A95EAF763E0369527956A95E1F739
:100E9000220F331F220F331FFA01E20FF31F40E02E
:100EA00050E0682F70E08191DF019B01042E02C0A9
:100EB000369527950A94E2F7217021952827292352
:100EC00028272E934F5F5F4F4430510561F70895F7
:100ED0009C01982F977083E0369527958A95E1F7C6
:100EE000220F331F220F331FFB01E20FF31F40E0DD
:100EF00050E080E0219130E0092E02C03695279520
:100F00000A94E2F721703327042E01C0220F0A94BD
:100F1000EAF7822B4F5F5F4F4430510559F7089530
:100F2000282F862F9A3068F4263058F4622F70E00C
:100F300026E0929F600D711D112442EB51E00E944A
:100F40003C070895292F9A3068F4863058F490E0D1
:100F500062EB71E036E0239F800D911D11240E9409
:100F60006807089580E00895A0E0B0E0EAEBF7E0BC
:100F70000C9484238C01E090D201F090D3018091F5
:100F8000D4019091D501E82AF92ACFE0D0E0CC2411
:100F9000C394D12CC6010C2E02C0880F991F0A944D
:100FA000E2F78E219F21892B49F4219798F7B12CE4
:100FB0008B2DCDB7DEB7E9E00C94A023BC2EB80191
:100FC0008C2F0E94BB0E019781F3F2CFCF93DF935A
:100FD000D82FC92F0E94B4076D2F7C2F0E94BB0E03
:100FE000DF91CF9108951F93CF93DF93162FD72FC3
:100FF0009091B101911541F0862F972F0E94E6073D
:10100000DF91CF911F910895811581F0862F972F41
:101010000E94B407C82F682F812F9D2F0E94900730
:10102000612F7D2F8C2F0E94BB0EEACF862F972F2A
:101030000E94A207C82FF4CF0F931F93CF93E09184
:10104000D601C7E08091D7018E1304C0CF911F91C4
:101050000F9108950E2F10E0CE9FF0011124E85259
:10106000FE4F208131814281538164817581868167
:101070000E949C06F8013196E770E4CF209110029F
:1010800030911102409112025091130260911402AA
:1010900070911502809116020E949C06089580911D
:1010A0001602803178F480911502811559F0E09193
:1010B000D6012091D701309111024091100257E0E2
:1010C0002E1301C008956E2F70E05E9FF001112471
:1010D000DF01A852BE4F14968C911497811561F1CF
:1010E00011968C911197831327C08C91841324C07F
:1010F00015968C91159781111FC012968D919C9118
:10110000A0911202B09113028A1B9B0B883C91059F
:1011100098F4809116028F70806180931602E252DB
:10112000FE4F80818F708061808380E192E00E9419
:1011300023060E941C080895FB013196E770C0CF7A
:10114000E091D6019091D70127E0E91302C080E039
:101150000895AE2FB0E02E9FF0011124E852FE4F0B
:101160003181361306C03081381303C03581341302
:1011700004C0FD013196E770E8CF81E008958F92B9
:101180009F92AF92BF92DF92EF92FF920F931F93C5
:10119000CF93DF93CDB7DEB72D970FB6F894DEBFB0
:1011A0000FBECDBF8C0186E0F801DE0118960190DC
:1011B0000D928A95E1F7F801F580848190E1892EFE
:1011C00092E0992E9091140291111BC0811509F49F
:1011D000FFC0F11409F440C1C8010E9485068115C1
:1011E00009F43AC187E0F801D40101900D928A9583
:1011F000E1F7C4010E9454030E944F080E943E0878
:10120000E7C0E080A280B380D09015022091120246
:1012100030911302A501421B530BD11409F4DBC01A
:10122000483C510508F0A6C0811509F4D1C0909141
:101230001102918080911602803108F06BC09912E2
:1012400028C0909110029E1124C0F1105DC08F70D3
:101250008061809316020E943E0880E192E00E9425
:10126000230680911602F8018683F12C8F2D2D968E
:101270000FB6F894DEBF0FBECDBFDF91CF911F91A7
:101280000F91FF90EF90DF90BF90AF909F908F9065
:101290000895F11039C040E0692D8E2D0E94A008FC
:1012A00040E0692D8E2D0E94A008F82E8111DDCF1F
:1012B000888599850E94E607292F22952F70903402
:1012C00050F49F70223080F0911599F0F8019681CA
:1012D000903178F4CBCF2A5F2F70223078F0C8019C
:1012E0000E942306FD2CC2CF911519F0811509F437
:1012F000BDCF805E883008F4B9CFF1CF803F08F4CD
:10130000B5CF815F8330F7CF8091160281608093E3
:101310001602ABCF991207C0909110029E1103C024
:10132000F11409F479C0C8010E948506811509F4F9
:1013300093C0F11409F490C080911602803288F0B5
:1013400020911002309111023A832983BC82AB8232
:10135000909114029D831E828F83CE0101960E947C
:10136000230687E0F801A0E1B2E001900D928A9592
:10137000E1F742CF909116029031A0F4488559854B
:101380006A857B858C859D850E94920680E192E02E
:101390000E94230687E0F40111928A95E9F70E94E2
:1013A0003E0863CF8115A1F020911102818128139D
:1013B000BACF809110028E11B6CFF110B4CF9683C0
:1013C000C8010E94230687E0F40111928A95E9F78B
:1013D000FF24F3944BCF483C510508F041C08115E0
:1013E000B9F3F114C9F190911102818198132AC0C7
:1013F000809110028E1126C08091160280FD19C0C6
:101400008031B8F08683807F803F39F08681982FC5
:10141000907F905F8F70892B8683C8010E9423067E
:1014200087E0F801A0E1B2E001900D928A95E1F722
:10143000E5CE87E0F801A0E1B2E001900D928A9537
:10144000E1F7C6CFC8010E94850681118ACF80913D
:101450001602816080931602C8010E942306B8CF4D
:10146000488559856A857B858C859D850E94920675
:1014700091CFAEE0B0E0EFE3FAE00C948A23288746
:1014800039874A875B876C877D878E87CE01089670
:101490000E94BF086C858115A9F0611541F028856F
:1014A00039854A855B857D858E850E949C0617E07F
:1014B0008091D6019091D70189133AC02E96E3E02E
:1014C0000C94A62387E0FE013896DE011196019068
:1014D0000D928A95E1F7611551F3A091D7018A2FFA
:1014E00090E00196877099272091D6012817190658
:1014F00089F097E09A9FD0011124A852BE4FFE01B7
:10150000319601900D929A95E1F78093D7010E9450
:101510001C08CDCF0E945C061092D7011092D60114
:1015200087E0E0E1F2E0DF011D928A95E9F7BFCFA5
:10153000189FC001112488529E4F0E94BF08811538
:1015400009F4BCCFE091D6011E9FF0011124E852AE
:10155000FE4F208131814281538164817581868172
:101560000E949C068091D60190E001968770992791
:101570008093D6019DCF80913F0286958695869572
:10158000089580913F028770089590913F0297706F
:1015900081E0911101C080E0089580916B0208956F
:1015A00090916B02982B90936B020895982F9095D1
:1015B00080916B02892380936B02089510926B02D5
:1015C000089590916A02982B90936A020895982F3B
:1015D000909580916A02892380936A0208951092FF
:1015E0006A02089508950E94F20A089590914002B7
:1015F000292F2823211531F08095892380934002DB
:101600000E94F30A089508950E94030B0895909193
:101610004102292F2823281729F0982B9093410263
:101620000E94040B089590914102292F282321152F
:1016300031F080958923809341020E94040B089524
:1016400080914102811529F01092410280E00E94B0
:10165000040B0895CF93C0916B0280916A02C82B4E
:1016600080914102811531F0C82B0E94CD18811163
:101670000E94200B8C2FCF910895CF93DF93C091C0
:101680000201D09103010E942A0B8883C0910201BC
:10169000D091030148E050E067E372E0CE010E9480
:1016A000C623892B59F088E0FE01A7E3B2E0019040
:1016B0000D928A95E1F7CE010E945818DF91CF91E3
:1016C0000895CF93DF93C0910001D09101010E9452
:1016D0002A0B8983C0910001D091010140E250E0C2
:1016E00067E172E0CE010E94C623892B59F080E2A7
:1016F000FE01A7E1B2E001900D928A95E1F7CE01DB
:101700000E946318DF91CF91089580912F01811578
:1017100039F08091C90287FF03C00E94610B0895D0
:101720000E943D0B089508950E94930B0895962FF3
:101730002091CA0222FF11C0682F660F660F660F44
:10174000692B60933F020E94EE0680913F028695CE
:10175000869586950E94940B08950E94EE06089542
:1017600010923F0280E00E94940B089590913F02F6
:101770008095892380933F02282F277021110DC067
:10178000891759F09091CA0292FF07C086958695F5
:1017900086950E94FE060E94B00B08959091CA02A1
:1017A00092FB222720F9281769F080FB92F9909389
:1017B000CA028091C9029091CA020E94150C82E06F
:1017C0000E94B60B08958091CA02002482FF039400
:1017D000802D0E94CE0B089581E00E94CE0B0895CB
:1017E00080E00E94CE0B08956FEF7FEF80E090E0E5
:1017F0000E941824089580E090E00E94E4239C0158
:1018000081E0253E3E4F09F080E0089582E090E0BF
:101810000E94DC23089583E090E00E94DC23089579
:1018200084E090E00E94E4230895BC0184E090E00D
:101830000E9418240895AB01BC018FE090E00E9443
:101840000C240895AB01BC0183E190E00E940C24BC
:10185000089560E070E0CB010E94220C089560E0E2
:1018600070E0CB010E941B0C0E94290C0895A8E097
:10187000B0E0EDE3FCE00C948B2365EE7EEF80E0BE
:1018800090E00E94182460E082E090E00E94FA2339
:1018900081E090E09093D5018093D40161E083E0F2
:1018A00090E00E94FA2360E074E184E090E00E94FE
:1018B000182460E086E090E00E94FA2360E087E070
:1018C00090E00E94FA2340E050E0BA0188E090E006
:1018D0000E940C2460E083E290E00E94FA2360E022
:1018E0008CE090E00E94FA2360E08DE090E00E949E
:1018F000FA2319821A821B821C821D821E821F8279
:10190000188648E050E067E170E0CE0101960E9441
:10191000EA2340E050E0BA018FE190E00E940C24FD
:101920000E942F0C2896E2E00C94A7230E94370C0B
:1019300008958EE090E00E94DC23982F81E09111C1
:1019400001C080E00895682F8EE090E00E94FA23A5
:101950000895A6E0B0E0EFEAFCE00C9489230E9431
:10196000931A8C0180916C0290916D0280179107FF
:1019700079F019821A820E94931ABC0149815A8116
:1019800080E090E00E94240310936D0200936C02AB
:101990002696E4E00C94A5230E94D60F60937C0267
:1019A00070937D0280937E0290937F026093780211
:1019B0007093790280937A0290937B020895089540
:1019C00008950E94DF0C089508950E94E40C089584
:1019D00081E0089588EF9FE00E94D4130E94E00CFC
:1019E0000E94E10C08950E94C91108950895089578
:1019F0000E94F60C0E94F70C08950E94FB0B8111C7
:101A000002C00E94960C0E94060C809380020E94E5
:101A1000100C9093CA028093C9020E94F7130E948F
:101A20000B0C90E00E94B2068091D2019091D301FC
:101A30000E94D30608950E948A1A0E94B00F0E9445
:101A4000CC110E94FF100E94FD0C0E94F8020E941F
:101A5000FA130E94DE110E94E50C0895A6E0B0E0A2
:101A6000E4E3FDE00C9482230E94E80C81110CC099
:101A70000E94A90C0E94C9110E94B7160E940B0374
:101A80002696EBE00C949E230E9423118EE6A82E4E
:101A900082E0B82E750110E0F70101917F01812FDE
:101AA0000E9402101F5F1A3009F442C00817A1F308
:101AB0008091800281FD0E9408100E94F30CC82EC4
:101AC00000E099249394802F0E940210182FF501B2
:101AD00091915F01891731F1D82ED926F12CEE248E
:101AE000E3948E2D8D218115B1F0C114A1F0F982FE
:101AF0000A830E94931A9C838B839D8291E08E2D92
:101B00008123811101C090E049815A816B817C81E0
:101B10008D810E942403F394EE0CF6E0FF12E1CFD6
:101B2000F50112930F5F0A3071F60E94CC0CA2CF20
:101B30000813BECF9DCF1F93CF93DF930E94C00E9B
:101B4000EC01811522E5920708F05DC0811540E5A2
:101B5000940708F0DBC0803E910528F58D3C910587
:101B600008F0ACC0883A910578F4853A910508F000
:101B7000A2C08130910509F441C00497813A9105D2
:101B8000E8F1C0E0D0E03AC0885A91094B97C8F715
:101B9000C85AD0E0CC0FDD1FCA59DE4F0990D8815A
:101BA000C02DD4642BC0811550E49507F8F4C115FD
:101BB00080E2D80708F0C0C0C83ED105F8F0CE01D9
:101BC0009A9581159F41E8F68D2F0E94610F182F7D
:101BD000CE0199270E94C00E212F30E0322F2227FC
:101BE000E901CC27DF71C82BD92B08C099270E94A7
:101BF000C00ECC27DF70C82BD92BD06ACE01DF9165
:101C0000CF911F910895803842E59407C8F580363A
:101C100052E5950708F05BC0C03482E5D807D0F4E0
:101C2000C03292E5D90708F04BC08C2F8695869577
:101C300020E2829FC0011124C37021E030E0A9019D
:101C400002C0440F551FCA95E2F7EA01C82BD92BF1
:101C5000DD68D4CF8C2F86958695877050E2859F5E
:101C6000C0011124C37021E030E0A90102C0440F7B
:101C7000551FCA95E2F7EA01C82BD92BDC68BECF05
:101C8000803C52E5950758F48F71C03AD245A0F5D3
:101C900090E0982F8827EC01C46FD06AAFCF805CAA
:101CA0009245809708F06DCFDC2FCC27CC27DF71D1
:101CB000C06FD06AA3CFA497D064A0CFD0659ECFC9
:101CC000CF71D0E0DC2FCC27C16FD06A97CF86953B
:101CD0008695877020E2829FC0011124C37021E0A5
:101CE00030E0A90102C0440F551FCA95E2F7EA018E
:101CF000C82BD92BDA6882CF0E94610FC82FD0E0A1
:101D0000DC2FCC27CC27DF71D06278CF8F710E9477
:101D1000610F53E0CC0FDD1F5A95E1F7CC27DF7040
:101D2000282F30E084FF04C050E1859F90011124EA
:101D3000C22BD32BD06962CF8D2F8F710E94610F80
:101D4000182FCE0199270E94C00E212F30E0322F8C
:101D5000222722273F71282B392BE901D5CF462F87
:101D6000672F7A3028F4463018F40E94FB0108955A
:101D700080E090E008950E94AF0E0E949B0D0895B0
:101D80009C01803E910509F448C0D8F48133910547
:101D900009F47DC048F48932910509F46DC08A9731
:101DA00009F47CC0C90108958933910551F1823845
:101DB000910539F1C597B1F78091C90285FFF2CF3E
:101DC00029C0843E910509F447C048F4823E91053C
:101DD00099F1833E9105A9F121EE30E0E3CF863EF3
:101DE000910509F444C0873E9105E1F68091C9024E
:101DF00083FD61C09091CA0291FF2BC024EE30E0B8
:101E0000D1CF8091C9028370811152C08091CA02E2
:101E100083FFC8CF29E230E0C5CF8091C90280FDA1
:101E200033C09091CA0290FFBDCF23EE30E084FF13
:101E3000B9CF20E030E0B6CF8091C90282FDF5CF66
:101E4000B1CF8091C90282FD30C09091CA0290FD4D
:101E50002FC084FFA7CFEDCF8091CA0281FFA2CF10
:101E60008091C90227EE30E084FDE3CF9BCF8091C3
:101E7000C90283FDF7CF96CF8091C90285FD1EC0B0
:101E80008091CA0283FF8ECF29E330E08BCF80910F
:101E9000C90286FF87CF2AE230E084CF8091C90251
:101EA00086FF80CF21E330E07DCF22EE30E07ACF95
:101EB00020EE30E077CF26EE30E074CF25E330E03F
:101EC00071CF9091C90292FF10C041E0282F247178
:101ED000243009F040E031E0282F2871283009F043
:101EE00030E0431711F02CE0822793FF10C041E04F
:101EF000282F2471243109F040E031E0282F287187
:101F0000283109F030E0431711F02CE0822730919E
:101F1000CA0230FF10C051E0282F2171213009F092
:101F200050E041E0282F2871283009F040E0541794
:101F300011F029E0822731FF10C041E0282F2171E4
:101F4000213109F040E031E0282F2871283109F0D3
:101F500030E0431711F029E0822794FD877E089531
:101F60001092CB021092CC021092CD021092CE02AF
:101F70000895CF92DF92EF92FF926B017C010E9455
:101F8000C91181110EC00E949F1AC61AD70AE80A09
:101F9000F90AC092CB02D092CC02E092CD02F0922C
:101FA000CE02FF90EF90DF90CF900895CF92DF9216
:101FB000EF92FF920E94C911811559F00E949F1A59
:101FC0006B017C01C701B601FF90EF90DF90CF90CD
:101FD00008950E949F1AC090CB02D090CC02E0904E
:101FE000CD02F090CE02C60ED71EE81EF91EEACF33
:101FF00080E0089508950E94FA0F089508950E94C0
:10200000FE0F0895E82FF0E0E652FD4F808108951D
:10201000089580EA8A95F1F7089500C008950E9416
:102020000910089508950E9412100895A5E0B0E0E7
:10203000ECE1F0E10C9485230E94C911F82E809107
:10204000E40290E086529D4FF114E9F125E0E22E82
:102050008E010F5F1F4FF8012E2D11922A95E9F77F
:10206000B8010E94EC1168018115B9F08091CF028E
:1020700090E045E050E0B80186529D4F0E94C62393
:1020800021E020938102892B91F4F12C0E94FF0F13
:102090008F2D2596E8E00C94A12380918102811573
:1020A000A1F3F8011192EA94E9F710928102A0914C
:1020B000CF02B0E0A652BD4F85E0F60101900D922F
:1020C0008A95E1F7E3CF2091CF0230E0BC01C9014E
:1020D00086529D4F0E9477120E941310D9CFF89418
:1020E000E82FE295EF70F0E041A18F7021E030E041
:1020F000B90102C0660F771F8A95E2F7CB01962FD0
:102100009095942391A392A1892B82A3789408950A
:10211000CF93DF93C2EAD1E089918F3F11F00E9403
:102120006F1081E0C73AD807B9F7CCE9D1E08991BF
:102130008F3F11F00E946F1081E0C23AD807B9F7C3
:10214000DF91CF910895A0E0B0E0E9EAF0E10C94CE
:102150008523EC01D62E062F10E0C8018E559E4F28
:102160007C01FC0180818F3F09F444C0F894E82F82
:10217000E295EF70F0E091A18F7021E030E001C0B6
:10218000220F8A95EAF7892F822B81A382A12095BD
:10219000282322A378940E940D10ACE9B1E091E0CD
:1021A000C12C8D918F3F79F0E82FE295EF70E05EC2
:1021B000F0E0208130E08F7002C0359527958A9538
:1021C000E2F7892F20FD80E0C82A990FF1E0A23ABA
:1021D000BF0739F7F70180818F3F11F00E946F1020
:1021E00061E0C11001C060E08D2D0E940F10C00F92
:1021F000D11FC882CDB7DEB7E8E00C94A12380914F
:1022000004018091040190E0811101C095E0909358
:10221000E40285E0891B8093CF020E9488108AE047
:10222000EAEDF2E0DF01982F1D929A95E9F7E0EDD3
:10223000F2E0DF011D928A95E9F785E00E946311C3
:102240000E94FB0F0895AAE0B0E0E9E2F1E10C94EE
:102250008823FE0131968AE0DF011D928A95E9F715
:1022600010E0FE2E0F2F612F8F2D902F0E94A310B4
:102270001F5F1530C1F74AE050E06F2D702F80EDE1
:1022800092E00E94C62321E0892B99F420E060911E
:10229000E40270E066527D4F45E080ED92E00E94DE
:1022A0006411182F0E941610812B2A96E5E00C94D9
:1022B000A4238AE0EF2DF02FA0EDB2E001900D9263
:1022C0008A95E1F7E4CF0895A0E0B0E0EAE6F1E115
:1022D0000C948523D82EE92EF62ED72F042FC22F4B
:1022E000211579F081E0809384020E94931A9093E3
:1022F00083028093820280E0CDB7DEB7E8E00C94E1
:10230000A123C0908402C114B1F380918202909104
:1023100083020E94AB1A059770F310E0A8016D2D9F
:102320007E2D8F2D9D2F0E94C623892B41F0A80161
:102330006D2D7E2D8F2D9D2F0E94D323CC2D10929D
:1023400084028C2FD9CF0E94FB0B811102C00E9406
:10235000960C0E94990C08950F931F93CF9308EC4D
:1023600010E00E945B23C82F81110BC08FE39CE912
:102370000197F1F700C000000150104091F70E9452
:1023800056238C2FCF911F910F9108958091880231
:1023900008958091870208950E94AC11809387026E
:1023A0000E94A311809388020E94C61180930401A9
:1023B0000E94C91181110E94221208950E94C91120
:1023C000811102C00E942512089581E09091890236
:1023D0009A3008F080E008950F931F93CF93DF9316
:1023E000EC01162F072F809189028A3090F4612F1B
:1023F000702FCE010E947412811121C08091890238
:102400008F3FB1F40E94931A9093860280938502C5
:1024100009C080918502909186020E94AB1A843F88
:10242000914028F780E0DF91CF911F910F9108959F
:102430008F5F809389028A3028F781E0F4CF109271
:102440008902FBCF0E94691B08950E946C1B0895AE
:10245000A0E0B0E0EEE2F2E10C948523FA0169011C
:102460007801C82F880FDD0B3097B9F0DE0193E0BB
:10247000AA0FBB1F9A95E1F7AB5FBE4F11968D91E6
:102480009C91129786579D4F2C91422F50E0E21756
:10249000F10508F4AF010E94D323CE010E94571C1E
:1024A000182F8115D9F0E114F104C1F083E0CC0FAD
:1024B000DD1F8A95E1F7FE01EB5FFE4F8381482F18
:1024C00050E0E816F10408F4A701CB5FDE4F6C8101
:1024D0007D8166577D4FC6010E94D323812FCDB7E2
:1024E000DEB7E8E00C94A1230E946D1308950E94CA
:1024F00086130895A4E0B0E0E0E8F2E10C948923AB
:102500006091A1027091A2028091A3029091A40215
:102510000E94BA1A11E0643671058105910520F117
:102520000E94D60FDC01CB010296A11DB11D89834B
:102530009A83AB83BC8300E010E020E030E044E00D
:1025400050E0BE016F5F7F4F82E00E942812182F7B
:10255000811551F00E949F1A6093A1027093A2020C
:102560008093A3029093A402812F2496E4E00C941C
:10257000A523A6E0B0E0EFEBF2E10C9483237B010E
:10258000A090A701B090A80101E010E09E012A5F91
:102590003F4F40E050E060E070E080E00E94281291
:1025A000182F811509F447C065018FEFC81AD80AA2
:1025B00060919D0270919E0280919F029091A00275
:1025C0000E94BA1A643671058105910560F105E033
:1025D00010E09E012F5F3F4F40E050E060E070E070
:1025E00081E00E942812182F65E070E0C6010E9469
:1025F000FB139E8198132AC0111541F10E949F1A66
:1026000060939D0270939E0280939F029093A0021C
:1026100085E0FE013196A8E9B2E001900D928A951D
:10262000E1F781E014C065E070E0C6010E94FB1391
:102630009E818913CCCF85E0F5013196DE0111969C
:1026400001900D928A95E1F71111E2CF80E095E0BB
:10265000E8E9F2E0D70101900D929A95E1F726960C
:10266000EAE00C949F23A0E0B0E0E9E3F3E10C94EE
:102670008323182F092FB62EA72E7A010E94E51169
:102680009AE0C92ED12C811103C0CC24C394D12C43
:10269000C1E0D0E06B2D7A2D812F902FF7010995A5
:1026A000811116C02196CC16DD0694F0CC9FC00196
:1026B000CD9F900D900D112420E030E045E34A9528
:1026C000F1F700002F5F3F4F28173907B9F7E2CF26
:1026D000CDB7DEB7EAE00C949F230F931F93CF93FF
:1026E000DF93D82FC92F8B0149EB52E10E9433139E
:1026F000811539F04AE752E1B8018D2F9C2F0E94D5
:102700003313DF91CF911F910F9108950F931F9372
:10271000CF93DF93FB01C091A701D091A801CE0117
:10272000019625E0DC0101900D922A95E1F765E024
:1027300070E00E94FB1388836E817F818885998574
:102740000091940210919502209196023091970287
:10275000601771078207930751F06093940270939A
:10276000950280939602909397020E94B90FDF9191
:10277000CF911F910F9108950E942E0D08950E94F0
:102780002C1A0E94131E0E94EA0C0E942D1E0E9409
:102790001B0D0E943A1E0E943F1E0E94BC130E9405
:1027A000591E0E94F80CF7CF9093AB018093AA01B9
:1027B00008950E94F40B089580E00E940210817039
:1027C00008950E9423112FEF86E791E02150804069
:1027D0009040E1F700C000000E9423110E94DC132A
:1027E000811521F00E94D9130E94F41A08950E94C5
:1027F000E11308950895FC01680F791F8FEF41E3FD
:10280000E617F70709F408959191892728E030E049
:10281000982F990F87FF06C0892F842721503040B9
:10282000B9F7EECF892FFACFCF93DF93EB01863143
:102830009C4719F50E94CD0A9D819115A1F08A7AD5
:1028400091E0811101C090E09093A502811549F0BB
:1028500085E30E947D190E94850B80E0DF91CF9176
:10286000089589E2F6CF8091A502811521F085E3D4
:102870000E949419F0CF89E2FBCF81E0EFCFCF9394
:10288000DF93EC01FB018581811509F4CFC09E0126
:1028900030572332310508F0AFC00E94100C9093DE
:1028A000CA028093C902FE01E150F047E232F1050D
:1028B00020F4E45CFB4D0C9475238091C902816087
:1028C0008093C90290C08091CA0288608093CA0236
:1028D0008AC08091C9028260F3CF8091C90284606E
:1028E000EFCF8091C9028860EBCF8091CA028160EE
:1028F000EDCF8091CA028260E9CF8091C9028061E8
:10290000DFCF8091C9028062DBCF8091C9028064F1
:10291000D7CF0E945C068091C9028068D1CF809198
:10292000C9028C60CDCF8091CA028360CFCF8091E5
:10293000C9028E7FC5CF8091CA02877FC7CF8091A1
:10294000C9028D7FBDCF8091C9028B7FB9CF8091A5
:10295000C902877FB5CF8091CA028E7FB7CF8091A1
:10296000CA028D7FB3CF8091C9028F7EA9CF80919B
:10297000C9028F7DA5CF8091C9028F7BA1CF0E9414
:102980005C068091C9028F779BCF8091C902837FBB
:1029900097CF8091CA028C7F99CF8091C9029927E5
:1029A00082FF939590FB82F990FB83F989CF809108
:1029B000CA02982F909590FB80F990FB81F986CF01
:1029C0009091C902892F8F7B96FF806479CF0E94F6
:1029D0005C069091C902892F97FB87F9805870CFC8
:1029E00081E00E94A30C8091C9029091CA020E94CA
:1029F000150C0E945C0680E0DF91CF91089580E085
:102A0000F0CF9091C902892F8F7E94FF806158CFBB
:102A10009091C902892F8E7F90FF816051CF909154
:102A2000CA02892F877F93FF886050CF81E0E4CF6F
:102A3000282F35EB2303C001112497FF04C08058D1
:102A40009109892F089580589F4FFBCF8091AC0248
:102A500080FF0DC06091220170E0660F771F603823
:102A60007105B0F561157105A9F1862F089581FFF3
:102A700007C06091220184E0689FB0011124EFCF6C
:102A800082FF04C06091220188E0F6CF9091AB02F2
:102A90009115D9F02091210180912201682F70E0D9
:102AA000921730F043E0660F771F4A95E1F7D7CFD2
:102AB000899FC001112433E0880F991F3A95E1F7EF
:102AC000622F70E00E946123CACF68E070E0CDCF32
:102AD0008FE7089581E008958091AC0280FF0CC0DB
:102AE00060911E0170E07595679575956795611504
:102AF000710549F1862F089581FF06C060911E017E
:102B000070E075956795F3CF60911E0182FD0BC053
:102B10009091AA029115A1F060911D0180911E0172
:102B2000961738F0682F70E06038710500F38FE772
:102B30000895899FC001112470E00E946123F4CFA1
:102B400061E070E0D7CF81E008959091AF022091CD
:102B5000B002922B2091B202922B2091B102922BC3
:102B6000911531F098E09093AB0291E09093AA0216
:102B7000E3E3E80FE331E0F5F0E0E25AFB4D0C94BB
:102B800075230E94261581958093B00208950E94B6
:102B90002615FACF0E94261581958093AF020895DD
:102BA0000E942615FACF0E946C158093B1020895F9
:102BB0000E946C158195F9CF0E946C1581958093C8
:102BC000B20208950E946C15FACF815D990B21E045
:102BD00030E001C0220F8A95EAF78091AE02822B85
:102BE0008093AE0208958091AC0281608093AC0224
:102BF00008958091AC028260F9CF8091AC0284602C
:102C0000F5CF4091AF028D3C59F48091B00287FF1F
:102C10000DC01092B002411559F41092AB0208C0D9
:102C20008E3C81F48091B00218169CF3411581F01E
:102C30008091B1029091B202892B811159C01092FA
:102C4000AA0208958F3C41F447FFF0CF1092AF02E3
:102C50008091B0028115E0CF803D19F41416B4F3D1
:102C6000E5CF9091B102893D29F41916FCF6109236
:102C7000B102DCCF8A3D19F497FFD8CFF8CF9091FD
:102C8000B2028B3D29F497FFD1CF1092B202CECF82
:102C90008C3D19F41916CCF3C9CF9FE2980F9830E8
:102CA00090F4815D990B21E030E0B90102C0660F1C
:102CB000771F8A95E2F7CB0180959091AE02892328
:102CC0008093AE02B3CF8D3D31F48091AC028E7F04
:102CD0008093AC02ABCF8E3D21F48091AC028D7F0E
:102CE000F7CF8F3D09F0A2CF8091AC028B7FF0CF60
:102CF00008950E94931A2091AF023091B002232BC5
:102D0000211521F08093A8029093A9022091B1028D
:102D10003091B202232B211521F08093A6029093CB
:102D2000A7028DEA92E00E947218089586E0EDEA0B
:102D3000F2E0DF011D928A95E9F71092AB02109242
:102D4000AA021092AC020895FC01828181110DC08B
:102D5000838181110AC08481811107C081E095813E
:102D6000911101C080E08170089581E0FCCFA6E060
:102D7000B0E0EDEBF6E10C94852386E0EDEAF2E0BD
:102D80009E012F5F3F4FD90101900D928A95E1F787
:102D90001092AF021092B0021092B1021092B202E1
:102DA0008B819C81892B7901811589F08091A80202
:102DB0009091A9020E94AB1A6C018091AB0281151F
:102DC000B9F1909123019C151D0408F43EC08D813A
:102DD0009E81892B811591F08091A6029091A70286
:102DE0000E94AB1A8C018091AA02811509F45FC080
:102DF00090911F019017110608F467C0B7018DEA82
:102E000092E00E94C519811105C08DEA92E00E94EE
:102E1000A41681110E94791686E0F701ADEAB2E0AE
:102E200001900D928A95E1F72696E8E00C94A12393
:102E3000209124019AE0299F900111242C153D0531
:102E400030F68F5F8093AB0202C08F3FD1F7DB80FB
:102E5000D11459F00E94261591E01D140CF09FEF3B
:102E6000899F802D11248093AF02DC80D11459F00A
:102E70000E94261591E01D140CF09FEF899F802D74
:102E800011248093B0028091AF02811509F49FCF85
:102E9000D090B002D11409F49ACF0E9418158093F3
:102EA000AF028D2D0E9418158093B00290CF209113
:102EB00020019AE0299F900111242017310708F082
:102EC0009DCF8F5F8093AA0202C08F3FD1F71D81F3
:102ED000111559F00E946C1591E011160CF09FEF3E
:102EE000899F802D11248093B1021E81111559F004
:102EF0000E946C1591E011160CF09FEF899F802DB8
:102F000011248093B2028091B102811509F476CF29
:102F10001091B202111509F471CF0E941815809317
:102F2000B102812F0E9418158093B20267CF0F93D0
:102F30001F93CF93DF93C42FD22FFC01858181157E
:102F4000C9F04093B5020E94931A9093B402809303
:102F5000B30280E28C0F883040F4C77081E001C07A
:102F6000880FCA95EAF70E940504DF91CF911F915F
:102F70000F9108951091B502141333C08091B302DC
:102F80009091B4020E94AB1A883C910550F5C0E2C2
:102F9000CD0F1D17C1F080E2810F883040F417700B
:102FA00081E001C0880F1A95EAF70E940C04C8302E
:102FB00050F491E08D2F877001C0990F8A95EAF740
:102FC000892F0E940504802F0E94FC03C83068F6F8
:102FD000D77081E001C0880FDA95EAF70E940C04EF
:102FE000C4CF80E28C0F883008F0BFCFC77081E07B
:102FF00001C0880FCA95EAF7F1CF0F93DB01FC01FE
:10300000E851FC47E730F10598F5EF58FB4D0C947B
:10301000752306E221EE41EE6AE17CE7CD010E94D4
:10302000971780E00F91089507E225EE45EE6BE1DA
:103030007CE7F4CF06E221EE40EE68E17CE7EECFDC
:1030400007E225EE44EE69E17CE7E8CF06E221EEF7
:1030500042EE6CE17CE7E2CF07E225EE46EE6DE161
:103060007CE7DCCF08E221E045EE6EE17CE7D6CFDD
:1030700015968C9181111092B50281E0D3CF909377
:10308000BC028093BB0208950E94C911811103C044
:103090008091B6020895E091BB02F091BC02309796
:1030A00029F00190F081E02D0995089580E00895C0
:1030B000E091BB02F091BC02309721F00280F381D5
:1030C000E02D09950895DC01E091BB02F091BC026E
:1030D000309739F086E08C930480F581E02DCD01A6
:1030E00009950895DC01E091BB02F091BC02309794
:1030F00039F082E08C930680F781E02DCD010995AF
:103100000895A3E0B0E0E7E8F8E10C948B239C017C
:103110008091B9029091BA0282179307A1F030937F
:10312000BA022093B902E091BB02F091BC02309741
:1031300051F083E089833B832A830084F185E02D6D
:10314000CE01019609952396E2E00C94A723A3E013
:10315000B0E0EDEAF8E10C948B239C018091B7027A
:103160009091B80282179307A1F03093B802209390
:10317000B702E091BB02F091BC02309751F084E0BD
:1031800089833B832A830084F185E02DCE0101965B
:1031900009952396E2E00C94A72320910201309137
:1031A00003012E5F3F4F80912F01811579F08091AF
:1031B000C90287FF0BC020910001309101012E5FF1
:1031C0003F4F9EE180E0915018F4089596E0FACFC9
:1031D000F90141919F014115B1F38F5FF4CF811542
:1031E000A1F190912F01911521F09091C90297FDC5
:1031F0000FC02091020130910301F9013296285F3E
:103200003F4F9191981719F1E217F307D1F71DC0BD
:10321000982F969596959695803FB8F4E091000189
:10322000F0910101E90FF11D228130E0877041E04A
:1032300050E0BA0102C0660F771F8A95E2F7CB0112
:103240002623392381E0232B19F480E0089581E0BF
:1032500008959C01FC0132968FEF90E04191461752
:1032600051F08F3F19F4411101C0892F9F5F9630B3
:10327000A9F78F3F09F40895280F311D87FD3A956E
:10328000F901628308959C01FC013296285F3F4F4B
:103290008191861302C0DF011E92E217F307C1F786
:1032A0000895FC01862F869586958695603F60F48B
:1032B000E80FF11D677021E030E001C0220F6A9530
:1032C000EAF78281822B82830895FC01862F8695FE
:1032D00086958695603F80F4E80FF11D677081E068
:1032E00090E09C0102C0220F331F6A95E2F7B901FA
:1032F00060958281682362830895682F80912F01F1
:10330000811559F08091C90287FF07C080910001A3
:10331000909101010E9451190895809102019091AC
:1033200003010E9429190895682F80912F018115AA
:1033300059F08091C90287FF07C0809100019091E8
:1033400001010E9465190895809102019091030185
:103350000E944319089580912F01811579F0809181
:10336000C90287FF0BC0E0910001F0910101329684
:103370008EE1DF011D928A95E9F70895E09102013F
:10338000F0910301329686E0F4CFDC01FB01119647
:103390009C9111978181981322C012968C9112975B
:1033A000811519F0928189131AC013968C91139785
:1033B000811519F09381891312C015968C91159778
:1033C000811519F0958189130AC014969C91911565
:1033D00021F081E02481291303C080E001C081E055
:1033E0008170089508950E94F21908958F5F809367
:1033F000BD020E94F319089583E08093BD020E94EC
:10340000F31908950E94F619089581E08093BD0292
:103410000E94F31908950E94051A089508950895C9
:103420000E940F1A0895089508950E940E1A089593
:10343000CF930E94131A0E9423110E94141AC0E015
:103440008C2F0E940210811105C0CF5FCA30C1F7D6
:10345000CF91089581E0FCCF85B7806885BF85B79F
:10346000806885BF08951F921FB61F9211248F9305
:103470009F93AF93BF938091BE02811113C080913F
:10348000E5029091E602A091E702B091E802419630
:10349000A11DB11D8093E5029093E602A093E7027F
:1034A000B093E802BF91AF919F918F911F901FBE83
:1034B0001F9018958091ED02843031F10E94DB025B
:1034C0001092BE0288E190E020E40FB6F894A8952F
:1034D000809360000FBE2093600083B7817F84607B
:1034E00083BF83B7816083BF7894889583B78E7FCD
:1034F00083BF0FB6F894A89580916000886180938F
:103500006000109260000FBE08950E945C060E9449
:10351000E002089582E084BD93E095BD9AEF97BDE7
:1035200080936E0008952FB7F8948091E5029091F2
:10353000E602A091E702B091E8022FBF08952FB7ED
:10354000F8946091E5027091E6028091E702909113
:10355000E8022FBF08959C014FB7F8948091E502CF
:103560009091E602A091E702B091E8024FBF821B62
:10357000930B08950F931F938B019C014FB7F89401
:103580006091E5027091E6028091E7029091E80275
:103590004FBF601B710B820B930B1F910F9108950E
:1035A00078941F921FB61F9211248F939F93AF930D
:1035B000BF938091E5029091E602A091E702B0915D
:1035C000E8020196A11DB11D8093E5029093E602E9
:1035D000A093E702B093E802BF91AF919F918F91C2
:1035E0001F901FBE1F90189587E797E790930108DB
:1035F0008093000888E19AE00FB6F894A89580932C
:1036000060000FBE90936000FFCF88E19AE00FB694
:10361000F894A895809360000FBE90936000FFCF50
:103620008EE14A9B02C08A95E1F74A9BFECF08953E
:103630005A9880E28A95F1F75A9A0895FC013BE086
:103640003A95F1F798E020E080E031E040E14A95DA
:10365000F1F7880F4A9B02C08160232742E04A9518
:10366000F1F7000040E14A95F1F79A9579F790E17A
:103670009A95F1F799B132E03A95F1F7000040E1FF
:103680004A95F1F792FB992790F992272081920FA2
:1036900090830895A1E0B0E0E0E5FBE10C9487237E
:1036A00019828C017C01E60EF11C0E94101BCE01D8
:1036B00001960E941E1BF80181938F01EE15FF05F4
:1036C000A1F781E09981911180E02196E6E00C94C8
:1036D000A323529A5A9A089552985A9AEA9AE9E676
:1036E000F0E080818F7C808308956150770B91E0BA
:1036F00001C0990F6A95EAF7692F90E021E0611106
:1037000008C0911599F05A9A80E28A95F1F75A9873
:103710000895362F3823311539F05A9A922730E21E
:103720003A95F1F76695EBCF5A98F9CF5A98ECCFC6
:10373000FF920F931F93CF93DF93EC018C01060F41
:10374000111DF9900E94181B68E08F2D0E94751BB7
:10375000C017D107B1F7CDB7DEB7E5E00C94A423CD
:103760001F920F920FB60F9211240F931F932F9356
:103770003F934F935F936F937F938F939F93AF93F9
:10378000BF93EF93FF93CF93DF930F92CDB7DEB745
:1037900019820E94101BCE0101960E941E1B082F49
:1037A000069506950695982F92959570202F257071
:1037B000920F292F237096959695920F98279770C0
:1037C0008981892B811509F05CC0043008F059C04B
:1037D00080E18A95F1F75A9A529A82E08A95F1F738
:1037E00000C05A9888E0089F80011124D801AB5F7F
:1037F000BE4F1696ED91FC9117973097A9F0609106
:10380000A7017091A80114962D913C911597260F50
:10381000371F11968D919C911297680F791F1396FF
:103820004C9113978C910995F801EB5FFE4F6381E2
:10383000611551F02091A7013091A80184819581F3
:10384000820F931F0E94981B0E94181B80E18A958B
:10385000F1F75A9852985A9A80E18A95F1F7F8014F
:10386000EB5FFE4F6081611551F02091A70130910F
:10387000A80181819281820F931F0E944A1B0E949E
:10388000101B0F90DF91CF91FF91EF91BF91AF91FE
:103890009F918F917F916F915F914F913F912F9168
:1038A0001F910F910F900FBE0F901F9018950F93BF
:1038B0001F93CF93DF938C0104970CF064C0F894AE
:1038C000529A5A9885E08A95F1F70000C02FC69564
:1038D000C570802F8570C80F8C2F8370C695C695D4
:1038E00093E0000F111F9A95E1F7C80FC8018C2BC8
:1038F000EC010E94181B00C068E08C2F0E94751B11
:1039000090E19A95F1F752985A9A4A9B35C087E010
:1039100090E04A9933C0F801EB5FFE4F6381611577
:1039200061F02091A7013091A80184819581820FD7
:10393000931F0E944A1B811519F10E94101B80E2FF
:103940008A95F1F75A98529A90E19A95F1F7F80111
:10395000EB5FFE4F6081611551F02091A70130911E
:10396000A80181819281820F931F0E94981B0E945F
:10397000181B789481E008C000C0C7CF019749F4B4
:10398000529A5A9A789480E0DF91CF911F910F91CB
:10399000089500C0BECF8091C7020895282FCB01A3
:1039A000BA013091ED023430D9F42F702093E90040
:1039B0002FEF3091E80035FD06C035ED3A95F1F76F
:1039C00000002A95B1F72091E80025FF09C040E0EA
:1039D00050E00E94D01E8091E8008E778093E8002E
:1039E0000895BC0143E050E082E00E94CE1C08959F
:1039F000BC0146E050E082E00E94CE1C0895BC016C
:103A000040E250E082E00E94CE1C0895CF93DF9305
:103A1000D82FC92F48E050E0682F792F81E00E940D
:103A2000CE1C88E0ED2FFC2FAFEBB2E001900D92A1
:103A30008A95E1F7DF91CF9108958091EC02811191
:103A400009C00E9459200E94B6208091E200846043
:103A50008093E20008951092EC0208950E94051AE6
:103A600008956091E90281E0611101C080E00E9447
:103A7000FC1908959091ED0281E0943009F080E006
:103A80006091E9020E94021A089542E061EC81E02F
:103A90000E94D51F42E261EC82E00E94D51F909106
:103AA000ED0281E0943009F080E06091E9020E942B
:103AB000F61908958091EF02893089F148F4823037
:103AC00009F4A0C0833009F45AC0813041F0089550
:103AD0008A3009F487C08B3009F46CC00895809156
:103AE000EE02813A09F04AC08091E800877F809316
:103AF000E8008091F2029091F302892B61F060E07E
:103B000080E090E070E00E94201F8091E8008B77B9
:103B10008093E800089568E08FEB92E0F3CF809106
:103B2000EE02813259F58091F2029091F3020297F0
:103B300028F58091E800877F8093E8008091E80075
:103B400082FF18C09091F3008091F200029731F447
:103B50008091F100813011F0863021F48091F100E4
:103B60008093C7028091E8008B778093E8000E94E1
:103B7000092008958091ED028111E0CF0895809190
:103B8000EE02813AD9F78091F2029091F302892BEB
:103B9000A9F78091E800877F8093E8008091E80092
:103BA00080FFFCCF80912F018093F1008091E8008D
:103BB0008E77DBCF8091EE02813201F78091F202A5
:103BC0009091F302892BD1F68091E800877F809352
:103BD000E8000E9409208091F00280932F010E944A
:103BE0005C0608958091EE02813241F68091E800F2
:103BF000877F8093E8000E9409208091F1028093E2
:103C0000C80208958091EE02813A09F0B7CF809101
:103C1000E800877F8093E8008091E80080FFFCCF78
:103C20008091C802C1CF84B7877F84BF0FB6F89454
:103C3000A895809160008861809360001092600078
:103C40000FBE80E890E00FB6F894809361009093E7
:103C500061000FBE0E940B1A08950E9459200E9415
:103C6000B620E2EEF0E080818460808378940E9448
:103C70003C23089585E291E00E943F1808958091C9
:103C8000ED02853031F48091ED02853019F00E940B
:103C9000851A08950E945A1A8091EB02811599F3B2
:103CA0000E94181A811579F30E94BA1E0E945C06C0
:103CB000EACF08959A014091F4025091F5020E94D2
:103CC000621E0895FC01D9018F2F99278330910539
:103CD000C1F068F48130910509F447C0029761F49E
:103CE0008BE390E028E332E02D933C9308958132FA
:103CF0009105E1F0829749F180E090E020E030E02A
:103D0000F3CFCF019927E13059F08230910559F076
:103D1000E4E3F2E0892B81F7849190E09F01E4CF06
:103D2000E4E2F2E0F9CFE4E1F2E0F6CF89E090E0FE
:103D30002AE432E061157105B9F289E090E023E6EA
:103D400032E06130710581F2D7CF84E490E02BE35B
:103D500033E06115710541F286EB90E025E832E031
:103D60006130710509F4C0CFC7CF82E190E023E74D
:103D700032E0BACF80E189BD82E189BD09B400FE9D
:103D8000FDCF8091D8008F7D8093D8008091E00096
:103D900082608093E0008091E00081FDFCCF089577
:103DA000AF92BF92CF92DF92EF92FF920F931F9349
:103DB000CF936C018B017A010E942820C82F8111BA
:103DC00023C0E114F10439F0F70180819181081BCF
:103DD000190BC80ED91EA12CB12C01151105A1F08B
:103DE0008091E80085FD21C08091E8008E77809366
:103DF000E800E114F10499F0F701808191818A0DC6
:103E00009B1D91838083C5E08C2FCF911F910F91D3
:103E1000FF90EF90DF90CF90BF90AF9008950E94F9
:103E200028208115E9F2C82FEFCFF60181916F01AB
:103E30008093F10001501109FFEFAF1ABF0ACDCFF7
:103E4000FC019B018091F4029091F502861797077F
:103E500018F0672B61F0C90140E0009771F441113F
:103E60000CC08091E80082FF35C080E00895809109
:103E7000E8008E778093E800EECF2091ED022115C7
:103E8000A9F12530A9F12091E80023FD2DC0209152
:103E9000E80022FDE6CF2091E80020FFDECF309140
:103EA000F3002091F200009719F02830310558F006
:103EB00041E02830310509F040E02091E8002E77FC
:103EC0002093E800CACF41914093F10001972F5F02
:103ED0003F4FE9CF8091ED02811541F0853041F0EF
:103EE0008091E80083FFBDCF81E0089582E00895CE
:103EF00083E00895FC019B018091F4029091F5020A
:103F00008617970718F0672B61F0C90140E000970A
:103F100071F441110CC08091E80082FF36C080E04E
:103F200008958091E8008E778093E800EECF20918D
:103F3000ED022115B1F12530B1F12091E80023FD0A
:103F40002EC02091E80022FDE6CF2091E80020FF5E
:103F5000DECF3091F3002091F200009719F0283065
:103F6000310558F041E02830310509F040E020915A
:103F7000E8002E772093E800CACF44914093F100E7
:103F8000319601972F5F3F4FE8CF8091ED02811569
:103F900041F0853041F08091E80083FFBCCF81E0A3
:103FA000089582E0089583E00895982F973028F0CF
:103FB0008F708093E90081E008959093E900242FA9
:103FC000762F50E0981731F07091EC002091ED00C1
:103FD0005091F00021FD02C09F5FE8CF3091EB00CF
:103FE0003E7F3093EB003091ED003D7F3093ED004C
:103FF0003091EB0031603093EB007093EC00209334
:10400000ED005093F0002091EE0027FDE5CF80E019
:1040100008958091EE0287FF13C08091E80082FF2F
:1040200006C08091E8008B778093E8000895809126
:10403000ED028111F2CF08958091ED028115D9F33F
:104040008091E80080FFF8CF8091E8008E77ECCF78
:104050002091E4003091E50095E6A9012091EC0063
:10406000822F817020FF06C08091E80080FF06C08B
:1040700080E008952091E80022FD1AC08091ED02B1
:10408000811589F0853089F08091EB0085FD0FC0A6
:104090002091E4003091E50042175307F9F29A9518
:1040A000E1F684E0089582E0089583E0089581E0D8
:1040B00008950E94C8200E94D020E0EEF0E08081A8
:1040C00081608083E8EDF0E080818F77808319BC88
:1040D000A7EDB0E08C918E7F8C9380818F7E808362
:1040E0001092EC0208950F931F93CF93DF930E94D9
:1040F000C8200E94D020C8EDD0E088818F778883C7
:1041000088818068888388818F7D888319BC10921C
:10411000ED021092E9021092EB021092EA0200EE18
:1041200010E0F80180818B7F8083888181608883A3
:1041300042E060E080E00E94D51FE1EEF0E0808187
:104140008E7F8083E2EEF0E08081816080838081D9
:1041500088608083F80180818E7F80838881806180
:104160008883DF91CF911F910F910895E8EDF0E0E2
:1041700080818F7E8083E7EDF0E0808181608083A5
:1041800084E082BF81E08093EC020E947320089556
:10419000E8EDF0E080818E7F80831092E200089548
:1041A0001092DA001092E10008951F920F920FB65C
:1041B0000F9211242F933F934F935F936F937F93AD
:1041C0008F939F93AF93BF93EF93FF938091E10001
:1041D00082FF0BC08091E20082FF07C08091E10066
:1041E0008B7F8093E1000E943B238091DA0080FF67
:1041F00019C08091D80080FF15C08091DA008E7FB1
:104200008093DA008091D90080FF94C080E189BD5D
:1042100082E189BD09B400FEFDCF81E08093ED020B
:104220000E941D1D8091E10080FF19C08091E20075
:1042300080FF15C08091E2008E7F8093E200809124
:10424000E20080618093E2008091D80080628093D8
:10425000D80019BC85E08093ED020E94311D809149
:10426000E10084FF29C08091E20084FF25C080E145
:1042700089BD82E189BD09B400FEFDCF8091D800DF
:104280008F7D8093D8008091E1008F7E8093E10044
:104290008091E2008F7E8093E2008091E200816055
:1042A0008093E2008091E902811509F449C084E01D
:1042B0008093ED020E943A1D8091E10083FF29C0A6
:1042C0008091E20083FF25C08091E100877F809389
:1042D000E10082E08093ED021092E9028091E1001A
:1042E0008E7F8093E1008091E2008E7F8093E200D8
:1042F0008091E20080618093E20042E060E080E033
:104300000E94D51F8091F00088608093F0000E9489
:104310002E1DFF91EF91BF91AF919F918F917F9152
:104320006F915F914F913F912F910F900FBE0F9022
:104330001F90189519BC1092ED020E942B1D72CF90
:104340008091E30087FF02C083E0B2CF81E0B0CF6D
:104350001F920F920FB60F921124EF92FF920F93BC
:104360001F932F933F934F935F936F937F938F93FD
:104370009F93AF93BF93CF93EF93FF9309EE10E01A
:10438000F8018081C091EC008F70C795CC27C7954C
:10439000C82B108280EFE82EF12CF7018081877FF7
:1043A000808378940E94F321F8011082F7018081C4
:1043B00088608083CF70F801C083FF91EF91CF9127
:1043C000BF91AF919F918F917F916F915F914F912D
:1043D0003F912F911F910F91FF90EF900F900FBE83
:1043E0000F901F901895AAE2B0E0E9EFF1E20C946B
:1043F00089238EEE92E0FC0101962091F10020834A
:1044000022E0863F9207B9F70E945A1D8091E8008A
:1044100083FF38C08091EE029091EF029A3090F5C0
:10442000E92FF0E0E858FB4D0C947523803889F0B3
:10443000823841F58091F2028F70873018F58093B1
:10444000E9008091EB0085FB882780F91092E90054
:1044500006C08091EB02880F9091EA02892B90911F
:10446000E800977F9093E8008093F1001092F100AC
:104470008091E8008E7723C0811116C08091F002F0
:10448000813011F18091E80083FF0AC08091E8003B
:10449000877F8093E8008091EB0080628093EB003F
:1044A000AA96E4E00C94A523823061F78091F00293
:1044B000811589F01092E9008091E800877F809350
:1044C000E8000E940920DECF81E0933009F080E00F
:1044D0008093EB02EFCF8091F2028F702FEF280FC5
:1044E000263080F68093E9002091EB0020FFE2CF98
:1044F000933031F48091EB0080628093EB00DACF4F
:104500009091EB0090619093EB0021E030E0A901E5
:1045100002C0440F551F8A95E2F74093EA001092BB
:10452000EA008091EB008860E8CF8111ABCF109159
:10453000F0021F778091E3008078812B8093E30065
:104540008091E800877F8093E8000E940920809195
:10455000E80080FFFCCF8091E30080688093E30057
:1045600083E0111101C082E08093ED028BCF80586F
:10457000823008F087CF8091F0029091F1028C3D5B
:1045800053E0950799F583E08A838AE289834FB7E0
:10459000F894DE01139620E03EE051E2E32FF0E0D4
:1045A00050935700849120FF03C082958F703F5F26
:1045B0008F708A30C8F0895C90E08D939D932F5F57
:1045C000243161F74FBF8091E800877F8093E80036
:1045D0006AE270E0CE0101960E94201F8091E800FF
:1045E0008B778093E8004ECF805DE6CF6091F2023A
:1045F0007091F302AE014F5F5F4F0E945A1E8C0113
:10460000892B09F43FCF8091E800877F8093E800F1
:10461000B80189819A810E947A1FE0CF803809F021
:1046200031CF8091E800877F8093E8008091E90294
:104630008093F1001DCF811125CF9091F00292302F
:1046400008F020CF8091E800877F8093E800909366
:10465000E9020E9409208091E902811531F084E08D
:104660008093ED020E94451D0DCF8091E30087FDF0
:10467000F6CF81E0F5CF0895CF938091ED028115BB
:1046800099F08091E900C091EC008F70C795CC271C
:10469000C795C82B1092E9008091E80083FD0E9425
:1046A000F321CF70C093E900CF9108950E94592063
:1046B0001092ED0208958091E30087FB882780F92E
:1046C000089597FB072E16F4009407D077FD09D0C4
:1046D0000E94B22307FC05D03EF4909581959F4F30
:1046E0000895709561957F4F0895EE0FFF1F059017
:1046F000F491E02D09942F923F924F925F926F9226
:104700007F928F929F92AF92BF92CF92DF92EF9261
:10471000FF920F931F93CF93DF93CDB7DEB7CA1BE2
:10472000DB0B0FB6F894DEBF0FBECDBF09942A880D
:10473000398848885F846E847D848C849B84AA84B5
:10474000B984C884DF80EE80FD800C811B81AA8142
:10475000B981CE0FD11D0FB6F894DEBF0FBECDBF0D
:10476000ED010895AA1BBB1B51E107C0AA1FBB1F87
:10477000A617B70710F0A61BB70B881F991F5A95ED
:10478000A9F780959095BC01CD010895FB01DC014E
:1047900004C08D910190801921F441505040C8F718
:1047A000881B990B0895FB01DC0102C001900D925A
:1047B00041505040D8F70895F999FECF92BD81BD80
:1047C000F89A992780B50895A8E1B0E042E050E05A
:1047D0000C942024DC01A40FB51F4150504048F038
:1047E000CB01840F951F2E910E94FB234150504016
:1047F000D0F70895262FF999FECF92BD81BDF89A82
:10480000019700B4021639F01FBA20BD0FB6F89414
:10481000FA9AF99A0FBE08950396272F0E94FB2358
:104820000E94FA23252F0E94FB23242F0C94FB23A4
:104830000196272F0E94FB230C94FA23DC01CB0165
:10484000FC01F999FECF06C0F2BDE1BDF89A3196A0
:1048500000B40D9241505040B8F70895F894FFCF3E
:104860005104510498049804FD041A05800480043E
:104870001F059605A705A705971408159F14691429
:104880006D14A3147114A714B3147D1401158114AD
:10489000B7148514BB14E0148914BF14E7148F14E3
:1048A000C514CD147514AB147914AF149314C91432
:1048B000D714F014FF1463149B140F15C115C715FA
:1048C000CA15D015E515E515E515E515E515E51548
:1048D000E515E515D315D815DC15E215F315F91511
:1048E000FD151A1820180918141826182C18321833
:1048F00016223C2242223C2242229522B722422208
:044900000E231B2344
:1049040042026202010000000100000000000000F9
:104914000501000000040600000000000028085003
:10492400011E0A1401CB1C061DFF1CF81CF11C01FE
:10493400E200E900EA00B500B600B700CD0083014B
:10494400CC008A019201940121022302240225024F
:10495400260227022A02B300B4006F0070009F01F0
:10496400CB019F02A002E200E900EA00B500B60014
:10497400B700CD008301CC008A0192019401210289
:10498400230224022502260227022A02B300B400CD
:104994006F0070009F01CB019F02A002F6F53697CD
:0A49A400C634F4F76694358A020069
:00000001FF
